{
  "transactions": [
    {
      "hash": "0x0845ccdf53b6e3343f3dad6843c390e73171f976c409fa28dffa8628fb5c4599",
      "transactionType": "CALL",
      "contractName": null,
      "contractAddress": "0xb0d981bf5ef096b3d2dbb2199f558e169ef53ea2",
      "function": "mintNft(string)",
      "arguments": [
        "ipfs://bafybeig37ioir76s7mg5oobetncojcm3c3hxasyd4rvid4jqhy4gkaheg4/?filename=0-PUG.json"
      ],
      "transaction": {
        "from": "0xad8ff35301c39442944c66437128c90654f6e507",
        "to": "0xb0d981bf5ef096b3d2dbb2199f558e169ef53ea2",
        "gas": "0x3da7f",
        "value": "0x0",
        "input": "0xda86f4a900000000000000000000000000000000000000000000000000000000000000200000000000000000000000000000000000000000000000000000000000000057697066733a2f2f62616679626569673337696f6972373673376d67356f6f6265746e636f6a636d3363336878617379643472766964346a71687934676b61686567342f3f66696c656e616d653d302d5055472e6a736f6e000000000000000000",
        "nonce": "0x9",
        "chainId": "0xaa36a7"
      },
      "additionalContracts": [],
      "isFixedGasLimit": false
    }
  ],
  "receipts": [
    {
      "status": "0x1",
      "cumulativeGasUsed": "0x186ff9a",
      "logs": [
        {
          "address": "0xb0d981bf5ef096b3d2dbb2199f558e169ef53ea2",
          "topics": [
            "0xddf252ad1be2c89b69c2b068fc378daa952ba7f163c4a11628f55a4df523b3ef",
            "0x0000000000000000000000000000000000000000000000000000000000000000",
            "0x000000000000000000000000ad8ff35301c39442944c66437128c90654f6e507",
            "0x0000000000000000000000000000000000000000000000000000000000000000"
          ],
          "data": "0x",
          "blockHash": "0xd64ff4d1ca4ff5db99ee593d40376f901785b50cc2f0d93244f0d1d8bf14ed92",
          "blockNumber": "0x7e8bd1",
          "blockTimestamp": "0x681ea9a8",
          "transactionHash": "0x0845ccdf53b6e3343f3dad6843c390e73171f976c409fa28dffa8628fb5c4599",
          "transactionIndex": "0xd4",
          "logIndex": "0x245",
          "removed": false
        }
      ],
      "logsBloom": "0x0000000000000000000000000000000000000000000000000000000000000000000000000000000000000000000000000000000000000000000000000000000000000000000000000000000800000000000000000000000000000000000000000000000002000000000000000000080000000000000000000000001000000000000000000000000000000000000000000000000000000000000000000200000000000000000000000000000000000000000000000000c000000000000000000000000002000000000000000000000000000100000000000000000000000020000000000000000000000800000000000000000040000000000000000000000000",
      "type": "0x2",
      "transactionHash": "0x0845ccdf53b6e3343f3dad6843c390e73171f976c409fa28dffa8628fb5c4599",
      "transactionIndex": "0xd4",
      "blockHash": "0xd64ff4d1ca4ff5db99ee593d40376f901785b50cc2f0d93244f0d1d8bf14ed92",
      "blockNumber": "0x7e8bd1",
      "gasUsed": "0x2ca35",
      "effectiveGasPrice": "0x86679",
      "from": "0xad8ff35301c39442944c66437128c90654f6e507",
      "to": "0xb0d981bf5ef096b3d2dbb2199f558e169ef53ea2",
      "contractAddress": null
    }
  ],
  "libraries": [],
  "pending": [],
  "returns": {},
  "timestamp": 1746839967,
  "chain": 11155111,
  "commit": null
}